{
  "contractName": "EventRegistration",
  "abi": [
    {
      "constant": true,
      "inputs": [
        {
          "name": "",
          "type": "address"
        }
      ],
      "name": "registrantsPaid",
      "outputs": [
        {
          "name": "amount",
          "type": "uint256"
        },
        {
          "name": "numTickets",
          "type": "uint256"
        }
      ],
      "payable": false,
      "stateMutability": "view",
      "type": "function"
    },
    {
      "constant": true,
      "inputs": [],
      "name": "numTicketSold",
      "outputs": [
        {
          "name": "",
          "type": "uint256"
        }
      ],
      "payable": false,
      "stateMutability": "view",
      "type": "function"
    },
    {
      "constant": true,
      "inputs": [],
      "name": "owner",
      "outputs": [
        {
          "name": "",
          "type": "address"
        }
      ],
      "payable": false,
      "stateMutability": "view",
      "type": "function"
    },
    {
      "constant": true,
      "inputs": [],
      "name": "price",
      "outputs": [
        {
          "name": "",
          "type": "uint256"
        }
      ],
      "payable": false,
      "stateMutability": "view",
      "type": "function"
    },
    {
      "constant": true,
      "inputs": [],
      "name": "quota",
      "outputs": [
        {
          "name": "",
          "type": "uint256"
        }
      ],
      "payable": false,
      "stateMutability": "view",
      "type": "function"
    },
    {
      "inputs": [
        {
          "name": "_quota",
          "type": "uint256"
        },
        {
          "name": "_price",
          "type": "uint256"
        }
      ],
      "payable": false,
      "stateMutability": "nonpayable",
      "type": "constructor"
    },
    {
      "anonymous": false,
      "inputs": [
        {
          "indexed": false,
          "name": "_from",
          "type": "address"
        },
        {
          "indexed": false,
          "name": "_amount",
          "type": "uint256"
        }
      ],
      "name": "Deposit",
      "type": "event"
    },
    {
      "anonymous": false,
      "inputs": [
        {
          "indexed": false,
          "name": "_to",
          "type": "address"
        },
        {
          "indexed": false,
          "name": "_amount",
          "type": "uint256"
        }
      ],
      "name": "Refund",
      "type": "event"
    },
    {
      "constant": false,
      "inputs": [
        {
          "name": "numTickets",
          "type": "uint256"
        }
      ],
      "name": "buyTicket",
      "outputs": [],
      "payable": true,
      "stateMutability": "payable",
      "type": "function"
    },
    {
      "constant": false,
      "inputs": [],
      "name": "refundTicket",
      "outputs": [],
      "payable": false,
      "stateMutability": "nonpayable",
      "type": "function"
    },
    {
      "constant": false,
      "inputs": [],
      "name": "withdrawFunds",
      "outputs": [],
      "payable": false,
      "stateMutability": "nonpayable",
      "type": "function"
    },
    {
      "constant": false,
      "inputs": [],
      "name": "getRegistrantAmountPaid",
      "outputs": [
        {
          "name": "",
          "type": "uint256"
        }
      ],
      "payable": false,
      "stateMutability": "nonpayable",
      "type": "function"
    },
    {
      "constant": false,
      "inputs": [],
      "name": "getRegistrantNumOfTickets",
      "outputs": [
        {
          "name": "",
          "type": "uint256"
        }
      ],
      "payable": false,
      "stateMutability": "nonpayable",
      "type": "function"
    },
    {
      "constant": false,
      "inputs": [],
      "name": "kill",
      "outputs": [],
      "payable": false,
      "stateMutability": "nonpayable",
      "type": "function"
    }
  ],
  "bytecode": "0x608060405234801561001057600080fd5b50604051604080610e8b8339810180604052604081101561003057600080fd5b810190808051906020019092919080519060200190929190505050336000806101000a81548173ffffffffffffffffffffffffffffffffffffffff021916908373ffffffffffffffffffffffffffffffffffffffff160217905550600060018190555081600281905550806003819055505050610dd9806100b26000396000f3fe6080604052600436106100af576000357c0100000000000000000000000000000000000000000000000000000000900463ffffffff16806313381fbf146100b457806314aff3f91461012057806324600fc31461014b57806335b1e5351461016257806341c0e1b51461018d57806367dd74ca146101a4578063713a3c93146101d25780638da5cb5b146101e9578063a035b1fe14610240578063ca289f411461026b578063cebe09c914610296575b600080fd5b3480156100c057600080fd5b50610103600480360360208110156100d757600080fd5b81019080803573ffffffffffffffffffffffffffffffffffffffff1690602001909291905050506102c1565b604051808381526020018281526020019250505060405180910390f35b34801561012c57600080fd5b506101356102e5565b6040518082815260200191505060405180910390f35b34801561015757600080fd5b5061016061032f565b005b34801561016e57600080fd5b506101776104d6565b6040518082815260200191505060405180910390f35b34801561019957600080fd5b506101a26104dc565b005b6101d0600480360360208110156101ba57600080fd5b81019080803590602001909291905050506105da565b005b3480156101de57600080fd5b506101e7610978565b005b3480156101f557600080fd5b506101fe610d32565b604051808273ffffffffffffffffffffffffffffffffffffffff1673ffffffffffffffffffffffffffffffffffffffff16815260200191505060405180910390f35b34801561024c57600080fd5b50610255610d57565b6040518082815260200191505060405180910390f35b34801561027757600080fd5b50610280610d5d565b6040518082815260200191505060405180910390f35b3480156102a257600080fd5b506102ab610da7565b6040518082815260200191505060405180910390f35b60046020528060005260406000206000915090508060000154908060010154905082565b6000600460003373ffffffffffffffffffffffffffffffffffffffff1673ffffffffffffffffffffffffffffffffffffffff16815260200190815260200160002060010154905090565b6000809054906101000a900473ffffffffffffffffffffffffffffffffffffffff1673ffffffffffffffffffffffffffffffffffffffff163373ffffffffffffffffffffffffffffffffffffffff161415156103f3576040517f08c379a00000000000000000000000000000000000000000000000000000000081526004018080602001828103825260178152602001807f6d73672e73656e646572206973206e6f74206f776e657200000000000000000081525060200191505060405180910390fd5b6000809054906101000a900473ffffffffffffffffffffffffffffffffffffffff1673ffffffffffffffffffffffffffffffffffffffff166108fc3073ffffffffffffffffffffffffffffffffffffffff16319081150290604051600060405180830381858888f1935050505015156104d4576040517f08c379a00000000000000000000000000000000000000000000000000000000081526004018080602001828103825260108152602001807f416e206572726f72206f6363757265640000000000000000000000000000000081525060200191505060405180910390fd5b565b60015481565b6000809054906101000a900473ffffffffffffffffffffffffffffffffffffffff1673ffffffffffffffffffffffffffffffffffffffff163373ffffffffffffffffffffffffffffffffffffffff161415156105a0576040517f08c379a00000000000000000000000000000000000000000000000000000000081526004018080602001828103825260178152602001807f6d73672e73656e646572206973206e6f74206f776e657200000000000000000081525060200191505060405180910390fd5b6000809054906101000a900473ffffffffffffffffffffffffffffffffffffffff1673ffffffffffffffffffffffffffffffffffffffff16ff5b60025460015411151515610656576040517f08c379a00000000000000000000000000000000000000000000000000000000081526004018080602001828103825260148152602001807f416c6c207469636b6574732061726520736f6c6400000000000000000000000081525060200191505060405180910390fd5b6000816003540290508034101515156106fd576040517f08c379a00000000000000000000000000000000000000000000000000000000081526004018080602001828103825260238152602001807f416d6f756e74206973206c657373207468616e20726571756972656420616d6f81526020017f756e74000000000000000000000000000000000000000000000000000000000081525060400191505060405180910390fd5b6000600460003373ffffffffffffffffffffffffffffffffffffffff1673ffffffffffffffffffffffffffffffffffffffff1681526020019081526020016000206000015411156107ed5780600460003373ffffffffffffffffffffffffffffffffffffffff1673ffffffffffffffffffffffffffffffffffffffff1681526020019081526020016000206000016000828254019250508190555081600460003373ffffffffffffffffffffffffffffffffffffffff1673ffffffffffffffffffffffffffffffffffffffff16815260200190815260200160002060010160008282540192505081905550610844565b6000600460003373ffffffffffffffffffffffffffffffffffffffff1673ffffffffffffffffffffffffffffffffffffffff1681526020019081526020016000209050818160000181905550828160010181905550505b81600154016001819055508034111561090957600081340390503373ffffffffffffffffffffffffffffffffffffffff166108fc829081150290604051600060405180830381858888f193505050501515610907576040517f08c379a00000000000000000000000000000000000000000000000000000000081526004018080602001828103825260108152602001807f416e206572726f72206f6363757265640000000000000000000000000000000081525060200191505060405180910390fd5b505b7fe1fffcc4923d04b559f4d29a8bfc6cda04eb5b0d3c460751c2402c5c5cc9109c3334604051808373ffffffffffffffffffffffffffffffffffffffff1673ffffffffffffffffffffffffffffffffffffffff1681526020018281526020019250505060405180910390a15050565b6000600460003373ffffffffffffffffffffffffffffffffffffffff1673ffffffffffffffffffffffffffffffffffffffff16815260200190815260200160002060000154111515610a58576040517f08c379a00000000000000000000000000000000000000000000000000000000081526004018080602001828103825260348152602001807f596f752068617665206e6f7420626f6f6b656420616e79207469636b65742f4581526020017f76656e7420686173206265656e20636c6f73656400000000000000000000000081525060400191505060405180910390fd5b600460003373ffffffffffffffffffffffffffffffffffffffff1673ffffffffffffffffffffffffffffffffffffffff168152602001908152602001600020600001543073ffffffffffffffffffffffffffffffffffffffff1631101515610d30573373ffffffffffffffffffffffffffffffffffffffff166108fc600460003373ffffffffffffffffffffffffffffffffffffffff1673ffffffffffffffffffffffffffffffffffffffff168152602001908152602001600020600001549081150290604051600060405180830381858888f193505050501515610ba5576040517f08c379a00000000000000000000000000000000000000000000000000000000081526004018080602001828103825260108152602001807f416e206572726f72206f6363757265640000000000000000000000000000000081525060200191505060405180910390fd5b600460003373ffffffffffffffffffffffffffffffffffffffff1673ffffffffffffffffffffffffffffffffffffffff16815260200190815260200160002060010154600154036001819055506000600460003373ffffffffffffffffffffffffffffffffffffffff1673ffffffffffffffffffffffffffffffffffffffff168152602001908152602001600020600001819055506000600460003373ffffffffffffffffffffffffffffffffffffffff1673ffffffffffffffffffffffffffffffffffffffff168152602001908152602001600020600101819055507fbb28353e4598c3b9199101a66e0989549b659a59a54d2c27fbb183f1932c8e6d33600460003373ffffffffffffffffffffffffffffffffffffffff1673ffffffffffffffffffffffffffffffffffffffff16815260200190815260200160002060000154604051808373ffffffffffffffffffffffffffffffffffffffff1673ffffffffffffffffffffffffffffffffffffffff1681526020018281526020019250505060405180910390a15b565b6000809054906101000a900473ffffffffffffffffffffffffffffffffffffffff1681565b60035481565b6000600460003373ffffffffffffffffffffffffffffffffffffffff1673ffffffffffffffffffffffffffffffffffffffff16815260200190815260200160002060000154905090565b6002548156fea165627a7a72305820862b368359af134ef72af5c8f1e9ed2dc174c3757cd727051e693b894745339b0029",
  "source": "// SPDX-License-Identifier: MIT\r\npragma solidity >=0.4.22 <0.9.0;\r\n\r\ncontract EventRegistration{\r\n    \r\n    struct Registrant{\r\n        uint amount;\r\n        uint numTickets;\r\n    }\r\n    address payable public owner;\r\n    uint public numTicketSold;\r\n    uint public quota;\r\n    uint public price;\r\n    mapping (address => Registrant) public registrantsPaid;\r\n    \r\n    event Deposit(address _from, uint _amount);\r\n    event Refund(address _to, uint _amount);\r\n    \r\n    modifier onlyOwner(){\r\n        require(msg.sender == owner, \"msg.sender is not owner\");\r\n        _;\r\n    }\r\n    modifier soldOut(){\r\n        require(numTicketSold <= quota, \"All tickets are sold\");\r\n        _;\r\n    }\r\n    \r\n    constructor (uint _quota, uint _price) public{\r\n        owner = msg.sender;\r\n        numTicketSold = 0;\r\n        quota = _quota;\r\n        price = _price;\r\n    }\r\n    \r\n    function buyTicket (uint numTickets)  soldOut public payable{\r\n        uint totalAmount = price*numTickets;\r\n        require(msg.value >= totalAmount, \"Amount is less than required amount\");\r\n        \r\n        if(registrantsPaid[msg.sender].amount > 0){\r\n            registrantsPaid[msg.sender].amount+=totalAmount;\r\n            registrantsPaid[msg.sender].numTickets+=numTickets;\r\n        }\r\n        else{\r\n            Registrant storage r = registrantsPaid[msg.sender];\r\n            r.amount = totalAmount;\r\n            r.numTickets = numTickets;\r\n        }\r\n        \r\n        numTicketSold = numTicketSold + numTickets;\r\n        \r\n        if(msg.value > totalAmount){\r\n            uint refundAmount = msg.value - totalAmount;\r\n            require(msg.sender.send(refundAmount), \"An error occured\");\r\n        }\r\n        \r\n        emit Deposit(msg.sender, msg.value);\r\n    }\r\n    \r\n    function refundTicket () public{\r\n        require(registrantsPaid[msg.sender].amount > 0, \"You have not booked any ticket/Event has been closed\");\r\n        if(address(this).balance >= registrantsPaid[msg.sender].amount){\r\n            require(msg.sender.send(registrantsPaid[msg.sender].amount), \"An error occured\");\r\n            numTicketSold = numTicketSold - registrantsPaid[msg.sender].numTickets;\r\n            registrantsPaid[msg.sender].amount = 0;\r\n            registrantsPaid[msg.sender].numTickets = 0;\r\n            emit Refund(msg.sender, registrantsPaid[msg.sender].amount);\r\n        }\r\n    }\r\n    \r\n    function withdrawFunds() public onlyOwner{\r\n        require(owner.send(address(this).balance), \"An error occured\");\r\n            \r\n    }\r\n    \r\n    function getRegistrantAmountPaid()public returns(uint) {\r\n        return registrantsPaid[msg.sender].amount;\r\n    }\r\n    \r\n    function getRegistrantNumOfTickets()public returns(uint) {\r\n        return registrantsPaid[msg.sender].numTickets;\r\n    }\r\n    \r\n    function kill() public onlyOwner{\r\n        selfdestruct(owner);\r\n    }\r\n}",
  "sourcePath": "D:/Bootcamps/Blockchain Bootcamp/Projects/Event-booking-Dapp/contracts/EventRegistration.sol",
  "compiler": {
    "name": "solc",
    "version": "0.5.0+commit.1d4f565a.Emscripten.clang"
  },
  "schemaVersion": "3.0.2",
  "updatedAt": "2021-08-24T17:51:13.031Z",
  "devdoc": {
    "methods": {}
  },
  "userdoc": {
    "methods": {}
  }
}