{
  "contractName": "Swap",
  "abi": [
    {
      "constant": true,
      "inputs": [],
      "name": "name",
      "outputs": [
        {
          "name": "",
          "type": "string"
        }
      ],
      "payable": false,
      "stateMutability": "view",
      "type": "function"
    },
    {
      "constant": true,
      "inputs": [],
      "name": "rate",
      "outputs": [
        {
          "name": "",
          "type": "uint256"
        }
      ],
      "payable": false,
      "stateMutability": "view",
      "type": "function"
    },
    {
      "constant": true,
      "inputs": [],
      "name": "token",
      "outputs": [
        {
          "name": "",
          "type": "address"
        }
      ],
      "payable": false,
      "stateMutability": "view",
      "type": "function"
    },
    {
      "inputs": [
        {
          "name": "_token",
          "type": "address"
        }
      ],
      "payable": false,
      "stateMutability": "nonpayable",
      "type": "constructor"
    },
    {
      "anonymous": false,
      "inputs": [
        {
          "indexed": false,
          "name": "account",
          "type": "address"
        },
        {
          "indexed": false,
          "name": "token",
          "type": "address"
        },
        {
          "indexed": false,
          "name": "amount",
          "type": "uint256"
        },
        {
          "indexed": false,
          "name": "rate",
          "type": "uint256"
        }
      ],
      "name": "TokensPurchased",
      "type": "event"
    },
    {
      "anonymous": false,
      "inputs": [
        {
          "indexed": false,
          "name": "account",
          "type": "address"
        },
        {
          "indexed": false,
          "name": "token",
          "type": "address"
        },
        {
          "indexed": false,
          "name": "amount",
          "type": "uint256"
        },
        {
          "indexed": false,
          "name": "rate",
          "type": "uint256"
        }
      ],
      "name": "TokensSold",
      "type": "event"
    },
    {
      "constant": false,
      "inputs": [],
      "name": "buyTokens",
      "outputs": [],
      "payable": true,
      "stateMutability": "payable",
      "type": "function"
    },
    {
      "constant": false,
      "inputs": [
        {
          "name": "_amount",
          "type": "uint256"
        }
      ],
      "name": "sellTokens",
      "outputs": [],
      "payable": false,
      "stateMutability": "nonpayable",
      "type": "function"
    }
  ],
  "bytecode": "0x60806040526040805190810160405280601581526020017f5377617020496e7374616e742045786368616e676500000000000000000000008152506000908051906020019061004f9291906100d9565b50606460025534801561006157600080fd5b50604051602080610aaf8339810180604052602081101561008157600080fd5b810190808051906020019092919050505080600160006101000a81548173ffffffffffffffffffffffffffffffffffffffff021916908373ffffffffffffffffffffffffffffffffffffffff1602179055505061017e565b828054600181600116156101000203166002900490600052602060002090601f016020900481019282601f1061011a57805160ff1916838001178555610148565b82800160010185558215610148579182015b8281111561014757825182559160200191906001019061012c565b5b5090506101559190610159565b5090565b61017b91905b8082111561017757600081600090555060010161015f565b5090565b90565b6109228061018d6000396000f3fe60806040526004361061006d576000357c0100000000000000000000000000000000000000000000000000000000900463ffffffff16806306fdde03146100725780632c4e722e146101025780636c11bcd31461012d578063d0febe4c14610168578063fc0c546a14610172575b600080fd5b34801561007e57600080fd5b506100876101c9565b6040518080602001828103825283818151815260200191508051906020019080838360005b838110156100c75780820151818401526020810190506100ac565b50505050905090810190601f1680156100f45780820380516001836020036101000a031916815260200191505b509250505060405180910390f35b34801561010e57600080fd5b50610117610267565b6040518082815260200191505060405180910390f35b34801561013957600080fd5b506101666004803603602081101561015057600080fd5b810190808035906020019092919050505061026d565b005b6101706105f4565b005b34801561017e57600080fd5b506101876108d0565b604051808273ffffffffffffffffffffffffffffffffffffffff1673ffffffffffffffffffffffffffffffffffffffff16815260200191505060405180910390f35b60008054600181600116156101000203166002900480601f01602080910402602001604051908101604052809291908181526020018280546001816001161561010002031660029004801561025f5780601f106102345761010080835404028352916020019161025f565b820191906000526020600020905b81548152906001019060200180831161024257829003601f168201915b505050505081565b60025481565b80600160009054906101000a900473ffffffffffffffffffffffffffffffffffffffff1673ffffffffffffffffffffffffffffffffffffffff166370a08231336040518263ffffffff167c0100000000000000000000000000000000000000000000000000000000028152600401808273ffffffffffffffffffffffffffffffffffffffff1673ffffffffffffffffffffffffffffffffffffffff16815260200191505060206040518083038186803b15801561032957600080fd5b505afa15801561033d573d6000803e3d6000fd5b505050506040513d602081101561035357600080fd5b81019080805190602001909291905050501015151561037157600080fd5b60006002548281151561038057fe5b049050803073ffffffffffffffffffffffffffffffffffffffff1631101515156103a957600080fd5b600160009054906101000a900473ffffffffffffffffffffffffffffffffffffffff1673ffffffffffffffffffffffffffffffffffffffff166323b872dd3330856040518463ffffffff167c0100000000000000000000000000000000000000000000000000000000028152600401808473ffffffffffffffffffffffffffffffffffffffff1673ffffffffffffffffffffffffffffffffffffffff1681526020018373ffffffffffffffffffffffffffffffffffffffff1673ffffffffffffffffffffffffffffffffffffffff1681526020018281526020019350505050602060405180830381600087803b1580156104a257600080fd5b505af11580156104b6573d6000803e3d6000fd5b505050506040513d60208110156104cc57600080fd5b8101908080519060200190929190505050503373ffffffffffffffffffffffffffffffffffffffff166108fc829081150290604051600060405180830381858888f19350505050158015610524573d6000803e3d6000fd5b507f697c42d55a5e1fed3f464ec6f38b32546a0bd368dc8068b065c67566d73f329033600160009054906101000a900473ffffffffffffffffffffffffffffffffffffffff1684600254604051808573ffffffffffffffffffffffffffffffffffffffff1673ffffffffffffffffffffffffffffffffffffffff1681526020018473ffffffffffffffffffffffffffffffffffffffff1673ffffffffffffffffffffffffffffffffffffffff16815260200183815260200182815260200194505050505060405180910390a15050565b60006002543402905080600160009054906101000a900473ffffffffffffffffffffffffffffffffffffffff1673ffffffffffffffffffffffffffffffffffffffff166370a08231306040518263ffffffff167c0100000000000000000000000000000000000000000000000000000000028152600401808273ffffffffffffffffffffffffffffffffffffffff1673ffffffffffffffffffffffffffffffffffffffff16815260200191505060206040518083038186803b1580156106b957600080fd5b505afa1580156106cd573d6000803e3d6000fd5b505050506040513d60208110156106e357600080fd5b81019080805190602001909291905050501015151561070157600080fd5b600160009054906101000a900473ffffffffffffffffffffffffffffffffffffffff1673ffffffffffffffffffffffffffffffffffffffff1663a9059cbb33836040518363ffffffff167c0100000000000000000000000000000000000000000000000000000000028152600401808373ffffffffffffffffffffffffffffffffffffffff1673ffffffffffffffffffffffffffffffffffffffff16815260200182815260200192505050602060405180830381600087803b1580156107c657600080fd5b505af11580156107da573d6000803e3d6000fd5b505050506040513d60208110156107f057600080fd5b8101908080519060200190929190505050507f6faf93231a456e552dbc9961f58d9713ee4f2e69d15f1975b050ef0911053a7b33600160009054906101000a900473ffffffffffffffffffffffffffffffffffffffff1683600254604051808573ffffffffffffffffffffffffffffffffffffffff1673ffffffffffffffffffffffffffffffffffffffff1681526020018473ffffffffffffffffffffffffffffffffffffffff1673ffffffffffffffffffffffffffffffffffffffff16815260200183815260200182815260200194505050505060405180910390a150565b600160009054906101000a900473ffffffffffffffffffffffffffffffffffffffff168156fea165627a7a72305820776a71c988682cc975e3025b7bd205d952ba2f78684c0fb429dc46c49808deef0029",
  "source": "// SPDX-License-Identifier: MIT\r\npragma solidity ^0.5.0;\r\n\r\nimport \"./Token.sol\";\r\n\r\ncontract Swap {\r\n    string public name = \"Swap Instant Exchange\";\r\n    Token public token;\r\n    uint256 public rate = 100;\r\n\r\n    event TokensPurchased(\r\n        address account,\r\n        address token,\r\n        uint256 amount,\r\n        uint256 rate\r\n    );\r\n\r\n    event TokensSold(\r\n        address account,\r\n        address token,\r\n        uint256 amount,\r\n        uint256 rate\r\n    );\r\n\r\n    constructor(Token _token) public {\r\n        token = _token;\r\n    }\r\n\r\n    function buyTokens() public payable {\r\n        // Calculate the number of tokens to buy\r\n        uint256 tokenAmount = msg.value * rate;\r\n\r\n        // Require that Swap has enough tokens\r\n        require(token.balanceOf(address(this)) >= tokenAmount);\r\n\r\n        // Transfer tokens to the user\r\n        token.transfer(msg.sender, tokenAmount);\r\n\r\n        // Emit an event\r\n        emit TokensPurchased(msg.sender, address(token), tokenAmount, rate);\r\n    }\r\n\r\n    function sellTokens(uint256 _amount) public {\r\n        // User can't sell more tokens than they have\r\n        require(token.balanceOf(msg.sender) >= _amount);\r\n\r\n        // Calculate the amount of Ether to redeem\r\n        uint256 etherAmount = _amount / rate;\r\n\r\n        // Require that Swap has enough Ether\r\n        require(address(this).balance >= etherAmount);\r\n\r\n        // Perform sale\r\n        token.transferFrom(msg.sender, address(this), _amount);\r\n        msg.sender.transfer(etherAmount);\r\n\r\n        // Emit an event\r\n        emit TokensSold(msg.sender, address(token), _amount, rate);\r\n    }\r\n}\r\n",
  "sourcePath": "D:/Bootcamps/Blockchain Bootcamp/Projects/Event-booking-Dapp/contracts/Swap.sol",
  "compiler": {
    "name": "solc",
    "version": "0.5.0+commit.1d4f565a.Emscripten.clang"
  },
  "schemaVersion": "3.0.2",
  "updatedAt": "2021-08-24T09:16:32.383Z",
  "devdoc": {
    "methods": {}
  },
  "userdoc": {
    "methods": {}
  }
}